{"abi":[{"type":"function","name":"publishAttestation","inputs":[{"name":"payload","type":"bytes","internalType":"bytes"},{"name":"signature","type":"bytes","internalType":"bytes"}],"outputs":[],"stateMutability":"nonpayable"},{"type":"event","name":"AttestationPublished","inputs":[{"name":"teeAddress","type":"address","indexed":true,"internalType":"address"},{"name":"payload","type":"bytes","indexed":false,"internalType":"bytes"},{"name":"signature","type":"bytes","indexed":false,"internalType":"bytes"},{"name":"timestamp","type":"uint256","indexed":false,"internalType":"uint256"}],"anonymous":false}],"bytecode":{"object":"0x6080604052348015600e575f5ffd5b506106d38061001c5f395ff3fe608060405234801561000f575f5ffd5b5060043610610029575f3560e01c8063aa5e0aa01461002d575b5f5ffd5b61004760048036038101906100429190610347565b610049565b005b5f6100da85858080601f0160208091040260200160405190810160405280939291908181526020018383808284375f81840152601f19601f8201169050808301925050505050505084848080601f0160208091040260200160405190810160405280939291908181526020018383808284375f81840152601f19601f82011690508083019250505050505050610139565b90508073ffffffffffffffffffffffffffffffffffffffff167f146379126e2245048d09e5a9a33fbb92e25f0c65db318bcdcd9af22249eb35f0868686864260405161012a959493929190610437565b60405180910390a25050505050565b5f604182511461017e576040517f08c379a0000000000000000000000000000000000000000000000000000000008152600401610175906104d8565b60405180910390fd5b5f838051906020012090505f5f5f602086015192506040860151915060608601515f1a9050601b8160ff1610156101bf57601b816101bc919061052f565b90505b601b8160ff1614806101d45750601c8160ff16145b610213576040517f08c379a000000000000000000000000000000000000000000000000000000000815260040161020a906105ad565b60405180910390fd5b5f6001858386866040515f815260200160405260405161023694939291906105f2565b6020604051602081039080840390855afa158015610256573d5f5f3e3d5ffd5b5050506020604051035190505f73ffffffffffffffffffffffffffffffffffffffff168173ffffffffffffffffffffffffffffffffffffffff16036102d0576040517f08c379a00000000000000000000000000000000000000000000000000000000081526004016102c79061067f565b60405180910390fd5b809550505050505092915050565b5f5ffd5b5f5ffd5b5f5ffd5b5f5ffd5b5f5ffd5b5f5f83601f840112610307576103066102e6565b5b8235905067ffffffffffffffff811115610324576103236102ea565b5b6020830191508360018202830111156103405761033f6102ee565b5b9250929050565b5f5f5f5f6040858703121561035f5761035e6102de565b5b5f85013567ffffffffffffffff81111561037c5761037b6102e2565b5b610388878288016102f2565b9450945050602085013567ffffffffffffffff8111156103ab576103aa6102e2565b5b6103b7878288016102f2565b925092505092959194509250565b5f82825260208201905092915050565b828183375f83830152505050565b5f601f19601f8301169050919050565b5f6103fe83856103c5565b935061040b8385846103d5565b610414836103e3565b840190509392505050565b5f819050919050565b6104318161041f565b82525050565b5f6060820190508181035f8301526104508187896103f3565b905081810360208301526104658185876103f3565b90506104746040830184610428565b9695505050505050565b5f82825260208201905092915050565b7f696e76616c6964207369676e6174757265206c656e67746800000000000000005f82015250565b5f6104c260188361047e565b91506104cd8261048e565b602082019050919050565b5f6020820190508181035f8301526104ef816104b6565b9050919050565b5f60ff82169050919050565b7f4e487b71000000000000000000000000000000000000000000000000000000005f52601160045260245ffd5b5f610539826104f6565b9150610544836104f6565b9250828201905060ff81111561055d5761055c610502565b5b92915050565b7f696e76616c696420762076616c756500000000000000000000000000000000005f82015250565b5f610597600f8361047e565b91506105a282610563565b602082019050919050565b5f6020820190508181035f8301526105c48161058b565b9050919050565b5f819050919050565b6105dd816105cb565b82525050565b6105ec816104f6565b82525050565b5f6080820190506106055f8301876105d4565b61061260208301866105e3565b61061f60408301856105d4565b61062c60608301846105d4565b95945050505050565b7f65637265636f766572206661696c6564000000000000000000000000000000005f82015250565b5f61066960108361047e565b915061067482610635565b602082019050919050565b5f6020820190508181035f8301526106968161065d565b905091905056fea264697066735822122007f37a7e407a5492f132526b499255789ede99a46ff3dc75c531f4d071af598664736f6c634300081f0033","linkReferences":{}},"methodIdentifiers":{"publishAttestation(bytes,bytes)":"aa5e0aa0"},"id":0}