{"abi":[{"type":"function","name":"publishAttestation","inputs":[{"name":"abiPayload","type":"bytes","internalType":"bytes"},{"name":"signature","type":"bytes","internalType":"bytes"}],"outputs":[],"stateMutability":"nonpayable"},{"type":"event","name":"AttestationPublished","inputs":[{"name":"teeAddress","type":"address","indexed":true,"internalType":"address"},{"name":"uid","type":"uint64","indexed":true,"internalType":"uint64"},{"name":"accountType","type":"string","indexed":false,"internalType":"string"},{"name":"estimatedTotalUsdt","type":"string","indexed":false,"internalType":"string"},{"name":"fetchedAt","type":"uint256","indexed":false,"internalType":"uint256"},{"name":"version","type":"string","indexed":false,"internalType":"string"},{"name":"rawPayload","type":"bytes","indexed":false,"internalType":"bytes"},{"name":"signature","type":"bytes","indexed":false,"internalType":"bytes"},{"name":"timestamp","type":"uint256","indexed":false,"internalType":"uint256"}],"anonymous":false}],"bytecode":{"object":"0x6080604052348015600e575f5ffd5b50610df28061001c5f395ff3fe608060405234801561000f575f5ffd5b5060043610610029575f3560e01c8063aa5e0aa01461002d575b5f5ffd5b6100476004803603810190610042919061038c565b610049565b005b5f6100da85858080601f0160208091040260200160405190810160405280939291908181526020018383808284375f81840152601f19601f8201169050808301925050505050505084848080601f0160208091040260200160405190810160405280939291908181526020018383808284375f81840152601f19601f82011690508083019250505050505050610175565b90505f85858101906100ec9190610a27565b9050806020015167ffffffffffffffff168273ffffffffffffffffffffffffffffffffffffffff167f0bec657d9028b9de64bb03920b939c0d77e65f22eef4f8046b32e07156fe266383604001518460e001518561014001518661016001518c8c8c8c4260405161016599989796959493929190610b19565b60405180910390a3505050505050565b5f60418251146101ba576040517f08c379a00000000000000000000000000000000000000000000000000000000081526004016101b190610bf7565b60405180910390fd5b5f838051906020012090505f5f5f602086015192506040860151915060608601515f1a9050601b8160ff1610156101fb57601b816101f89190610c4e565b90505b601b8160ff1614806102105750601c8160ff16145b61024f576040517f08c379a000000000000000000000000000000000000000000000000000000000815260040161024690610ccc565b60405180910390fd5b5f6001858386866040515f81526020016040526040516102729493929190610d11565b6020604051602081039080840390855afa158015610292573d5f5f3e3d5ffd5b5050506020604051035190505f73ffffffffffffffffffffffffffffffffffffffff168173ffffffffffffffffffffffffffffffffffffffff160361030c576040517f08c379a000000000000000000000000000000000000000000000000000000000815260040161030390610d9e565b60405180910390fd5b809550505050505092915050565b5f604051905090565b5f5ffd5b5f5ffd5b5f5ffd5b5f5ffd5b5f5ffd5b5f5f83601f84011261034c5761034b61032b565b5b8235905067ffffffffffffffff8111156103695761036861032f565b5b60208301915083600182028301111561038557610384610333565b5b9250929050565b5f5f5f5f604085870312156103a4576103a3610323565b5b5f85013567ffffffffffffffff8111156103c1576103c0610327565b5b6103cd87828801610337565b9450945050602085013567ffffffffffffffff8111156103f0576103ef610327565b5b6103fc87828801610337565b925092505092959194509250565b5f5ffd5b5f601f19601f8301169050919050565b7f4e487b71000000000000000000000000000000000000000000000000000000005f52604160045260245ffd5b6104548261040e565b810181811067ffffffffffffffff821117156104735761047261041e565b5b80604052505050565b5f61048561031a565b9050610491828261044b565b919050565b5f5ffd5b5f5ffd5b5f67ffffffffffffffff8211156104b8576104b761041e565b5b6104c18261040e565b9050602081019050919050565b828183375f83830152505050565b5f6104ee6104e98461049e565b61047c565b90508281526020810184848401111561050a5761050961049a565b5b6105158482856104ce565b509392505050565b5f82601f8301126105315761053061032b565b5b81356105418482602086016104dc565b91505092915050565b5f67ffffffffffffffff82169050919050565b6105668161054a565b8114610570575f5ffd5b50565b5f813590506105818161055d565b92915050565b5f67ffffffffffffffff8211156105a1576105a061041e565b5b602082029050602081019050919050565b5f6105c46105bf84610587565b61047c565b905080838252602082019050602084028301858111156105e7576105e6610333565b5b835b8181101561062e57803567ffffffffffffffff81111561060c5761060b61032b565b5b808601610619898261051d565b855260208501945050506020810190506105e9565b5050509392505050565b5f82601f83011261064c5761064b61032b565b5b813561065c8482602086016105b2565b91505092915050565b5f8115159050919050565b61067981610665565b8114610683575f5ffd5b50565b5f8135905061069481610670565b92915050565b5f819050919050565b6106ac8161069a565b81146106b6575f5ffd5b50565b5f813590506106c7816106a3565b92915050565b5f67ffffffffffffffff8211156106e7576106e661041e565b5b602082029050602081019050919050565b5f6060828403121561070d5761070c61040a565b5b610717606061047c565b90505f82013567ffffffffffffffff81111561073657610735610496565b5b6107428482850161051d565b5f83015250602082013567ffffffffffffffff81111561076557610764610496565b5b6107718482850161051d565b602083015250604082013567ffffffffffffffff81111561079557610794610496565b5b6107a18482850161051d565b60408301525092915050565b5f6107bf6107ba846106cd565b61047c565b905080838252602082019050602084028301858111156107e2576107e1610333565b5b835b8181101561082957803567ffffffffffffffff8111156108075761080661032b565b5b80860161081489826106f8565b855260208501945050506020810190506107e4565b5050509392505050565b5f82601f8301126108475761084661032b565b5b81356108578482602086016107ad565b91505092915050565b5f61018082840312156108765761087561040a565b5b61088161018061047c565b90505f82013567ffffffffffffffff8111156108a05761089f610496565b5b6108ac8482850161051d565b5f8301525060206108bf84828501610573565b602083015250604082013567ffffffffffffffff8111156108e3576108e2610496565b5b6108ef8482850161051d565b604083015250606082013567ffffffffffffffff81111561091357610912610496565b5b61091f84828501610638565b606083015250608061093384828501610686565b60808301525060a061094784828501610686565b60a08301525060c061095b84828501610686565b60c08301525060e082013567ffffffffffffffff81111561097f5761097e610496565b5b61098b8482850161051d565b60e0830152506101006109a0848285016106b9565b6101008301525061012082013567ffffffffffffffff8111156109c6576109c5610496565b5b6109d284828501610833565b610120830152506101406109e8848285016106b9565b6101408301525061016082013567ffffffffffffffff811115610a0e57610a0d610496565b5b610a1a8482850161051d565b6101608301525092915050565b5f60208284031215610a3c57610a3b610323565b5b5f82013567ffffffffffffffff811115610a5957610a58610327565b5b610a6584828501610860565b91505092915050565b5f81519050919050565b5f82825260208201905092915050565b8281835e5f83830152505050565b5f610aa082610a6e565b610aaa8185610a78565b9350610aba818560208601610a88565b610ac38161040e565b840191505092915050565b610ad78161069a565b82525050565b5f82825260208201905092915050565b5f610af88385610add565b9350610b058385846104ce565b610b0e8361040e565b840190509392505050565b5f60e0820190508181035f830152610b31818c610a96565b90508181036020830152610b45818b610a96565b9050610b54604083018a610ace565b8181036060830152610b668189610a96565b90508181036080830152610b7b818789610aed565b905081810360a0830152610b90818587610aed565b9050610b9f60c0830184610ace565b9a9950505050505050505050565b7f696e76616c6964207369676e6174757265206c656e67746800000000000000005f82015250565b5f610be1601883610a78565b9150610bec82610bad565b602082019050919050565b5f6020820190508181035f830152610c0e81610bd5565b9050919050565b5f60ff82169050919050565b7f4e487b71000000000000000000000000000000000000000000000000000000005f52601160045260245ffd5b5f610c5882610c15565b9150610c6383610c15565b9250828201905060ff811115610c7c57610c7b610c21565b5b92915050565b7f696e76616c696420762076616c756500000000000000000000000000000000005f82015250565b5f610cb6600f83610a78565b9150610cc182610c82565b602082019050919050565b5f6020820190508181035f830152610ce381610caa565b9050919050565b5f819050919050565b610cfc81610cea565b82525050565b610d0b81610c15565b82525050565b5f608082019050610d245f830187610cf3565b610d316020830186610d02565b610d3e6040830185610cf3565b610d4b6060830184610cf3565b95945050505050565b7f65637265636f766572206661696c6564000000000000000000000000000000005f82015250565b5f610d88601083610a78565b9150610d9382610d54565b602082019050919050565b5f6020820190508181035f830152610db581610d7c565b905091905056fea264697066735822122048d92c7e09ae8d4e379fb0440e6cbe3795409e0b47276eb90f54278367f5ffed64736f6c634300081f0033","linkReferences":{}},"methodIdentifiers":{"publishAttestation(bytes,bytes)":"aa5e0aa0"},"id":0}